:100000000C9492000C942E070C9407070C94BA00E1
:100010000C94BA000C94BA000C94BA000C94BA0078
:100020000C94BA000C94BA000C94BA000C94BA0068
:100030000C94BA000C9455070C94BA000C94BA00B6
:100040000C94BD060C94BA000C948B060C946506B7
:100050000C94BA000C94BA000C94BA000C94BA0038
:100060000C94BA000C94BA00000622766D247F200E
:10007000390F5C50104008063F065B4F666D7D07E8
:100080007F6F303058484C535F777F395E79713DD0
:1000900076060E753815373F7367336D783E1C2A28
:1000A000766E5B39300F1308105F7C585E7B716F82
:1000B00074040C753015545C7367506D781C1C2AE1
:1000C00076665B79064F40000000000024002700A0
:1000D0002A00000000002300260029000000000084
:1000E000250028002B000404040404040404020274
:1000F00002020202030303030303010204081020A7
:1001000040800102040810200102040810200000B1
:1001100000080002010000030407000000000000C6
:100120000000640711241FBECFEFD8E0DEBFCDBFB3
:1001300011E0A0E0B1E0ECE8F7E102C005900D921B
:10014000A633B107D9F721E0A6E3B1E001C01D92C3
:10015000A53FB207E1F710E0C2E9D0E004C0219763
:10016000FE010E94B50BC139D107C9F70E94DF0714
:100170000C94C40B0C940000E4E8F0E080819181C1
:10018000B0E0A0E08093410190934201A09343012D
:10019000B093440111821082109204010895AF922D
:1001A000BF92CF92DF92EF92FF920F931F93CF9364
:1001B000DF936C017B018B01040F151FEB015E01C6
:1001C000AE18BF08C017D10759F06991D601ED915B
:1001D000FC910190F081E02DC6010995892B79F7FA
:1001E000C501DF91CF911F910F91FF90EF90DF90AC
:1001F000CF90BF90AF900895FC01538D448D252F73
:1002000030E0842F90E0821B930B541710F0CF96B0
:10021000089501970895FC01918D828D981761F0E2
:10022000A28DAE0FBF2FB11D5D968C91928D9F5FF9
:100230009F73928F90E008958FEF9FEF0895FC01D8
:10024000918D828D981731F0828DE80FF11D858D8B
:1002500090E008958FEF9FEF0895FC01918D228D1E
:10026000892F90E0805C9F4F821B91098F739927A3
:10027000089585E491E00E942D0121E0892B09F485
:1002800020E0822F089580E090E0892B29F00E94E1
:10029000390181110C9400000895FC01A48DA80F70
:1002A000B92FB11DA35ABF4F2C91848D90E00196B8
:1002B0008F739927848FA689B7892C93A089B189D8
:1002C0008C91837080648C93938D848D981306C079
:1002D0000288F389E02D80818F7D80830895EF92DD
:1002E000FF920F931F93CF93DF93EC0181E0888FF0
:1002F0009B8D8C8D98131AC0E889F989808185FFC0
:1003000015C09FB7F894EE89FF896083E889F98961
:1003100080818370806480839FBF81E090E0DF9163
:10032000CF911F910F91FF90EF900895F62E0B8DB6
:1003300010E00F5F1F4F0F731127E02E8C8D8E1171
:100340000CC00FB607FCFACFE889F989808185FFD8
:10035000F5CFCE010E944D01F1CFEB8DEC0FFD2FBB
:10036000F11DE35AFF4FF0829FB7F8940B8FEA8993
:10037000FB8980818062CFCFCF93DF93EC01888DA2
:100380008823B9F0AA89BB89E889F9898C9185FD10
:1003900003C0808186FD0DC00FB607FCF7CF8C919E
:1003A00085FFF2CF808185FFEDCFCE010E944D0108
:1003B000E9CFDF91CF910895833081F028F4813027
:1003C00099F08230A9F008958730A9F08830C9F0FB
:1003D0008430B1F4809180008F7D03C080918000D3
:1003E0008F7780938000089584B58F7784BD0895BA
:1003F00084B58F7DFBCF8091B0008F778093B00064
:1004000008958091B0008F7DF9CF1F93CF93DF9334
:10041000E4E1F1E09491E0E0F1E0D491ECEEF0E081
:10042000C491CC23B9F0182F992319F0892F0E9479
:10043000DC01EC2FF0E0EE0FFF1FE452FF4FA5911F
:10044000B4918FB7F894EC91111108C0D095DE23C8
:10045000DC938FBFDF91CF911F910895DE2BF8CFF2
:100460003FB7F89480913B0190913C01A0913D01F0
:10047000B0913E0126B5A89B05C02F3F19F001960B
:10048000A11DB11D3FBFBA2FA92F982F8827BC01EE
:10049000CD01620F711D811D911D42E0660F771F16
:1004A000881F991F4A95D1F708958F929F92AF9216
:1004B000BF92CF92DF92EF92FF926B017C010E947C
:1004C00030024B015C01C114D104E104F104B9F024
:1004D0000E943002681979098A099B09683E7340B5
:1004E0008105910580F321E0C21AD108E108F108E5
:1004F00088EE880E83E0981EA11CB11CE4CFFF900B
:10050000EF90DF90CF90BF90AF909F908F90089525
:100510000895CF93DF93EBE2F0E0883040F098EF5E
:10052000980FE8E2F0E0963010F4E5E2F0E0908118
:1005300042EF480F8E3010F4482F477021E030E032
:1005400001C0220F4A95EAF7322F3095932390830A
:10055000AAE2B0E0683040F098EF960FA7E2B0E072
:10056000963010F4A4E2B0E09C9122EF260F6E309A
:1005700010F4262F277041E050E001C0440F2A9567
:10058000EAF7409549234C93CBE2D0E0683040F045
:1005900098EF960FC8E2D0E0963010F4C5E2D0E0B4
:1005A000288191E042EF460F6E3010F4462F4770DD
:1005B00001C0990F4A95EAF7292B2883CFE0D0E0B4
:1005C0002197F1F7C9E2D0E0683038F06850C6E210
:1005D000D0E0663010F4C3E2D0E02881292361E046
:1005E00009F060E050818E30B0F08E5021E001C003
:1005F000220F8A95EAF7252B2083CFE0D0E02197C0
:10060000F1F72081322330832C91922B9C93862FFB
:10061000DF91CF9108958770E9CFCF93DF93EBE21D
:10062000F0E0883040F098EF980FE8E2F0E0963084
:1006300010F4E5E2F0E0908142EF480F8E3010F4C4
:10064000482F477021E030E001C0220F4A95EAF7B9
:10065000209529232083AFE0B0E01197F1F7ABE2BA
:10066000B0E0683040F098EF960FA8E2B0E0963026
:1006700010F4A5E2B0E09C9142EF460F6E3010F40A
:10068000462F477021E030E001C0220F4A95EAF77B
:10069000209529232C93CFE0D0E02197F1F72081FA
:1006A0008E30D8F092EF980F81E001C0880F9A95B4
:1006B000EAF7822B80838FE090E00197F1F79C911D
:1006C0006E3098F06E5081E001C0880F6A95EAF7AD
:1006D000892B8C93DF91CF910895877091E001C0B1
:1006E000990F8A95EAF7892FE4CF6770ECCFEBE298
:1006F000F0E0683040F098EF960FE8E2F0E09630D6
:1007000010F4E5E2F0E0208191E032EF360F6E3038
:1007100010F4362F377001C0990F3A95EAF7922BF3
:100720009083ABE2B0E0883040F098EF980FA8E2F9
:10073000B0E0963010F4A5E2B0E02C918E30D8F005
:100740008E5091E001C0990F8A95EAF7892F822B8C
:100750008C938FE090E00197F1F720816E3068F084
:100760006E5081E090E001C0880F6A95EAF78095AD
:100770008223808308958770E4CF6770F2CFBF92A1
:10078000CF92DF92EF92FF920F931F93CF93DF935D
:10079000982F977021E030E0D90101C0AA0F9A95F7
:1007A000EAF792EF980F01C0220F9A95EAF7FA2E16
:1007B0008E3008F0F22EF094962F9770E1E0F0E082
:1007C000EF0101C0CC0F9A95EAF792EF960F01C0A6
:1007D000EE0F9A95EAF7EC2E6E3008F0EE2EE094CC
:1007E000DC2EBC2E6E3008F0BE2ECA2E8E3008F4E1
:1007F0002A2F58E098EF980F38EF360FCFE0D0E06F
:10080000ABE2B0E0883030F0A5E2B0E0963010F016
:10081000A8E2B0E07C917F21ABE2B0E0883030F01C
:10082000A5E2B0E0963010F0A8E2B0E07C93A42FEF
:10083000B0E040FF4AC00BE210E0683030F005E263
:1008400010E0363010F008E210E0F80140817D2D14
:100850000BE210E0683038F07B2D05E210E0363016
:1008600010F008E210E0472BF8014083FE013197B9
:10087000F1F7B595A7954A2FABE2B0E0883030F09C
:10088000A5E2B0E0963010F0A8E2B0E07C91FC2D3B
:10089000ABE2B0E0883038F0F22FA5E2B0E096305D
:1008A00010F0A8E2B0E07F2B7C93DE011197F1F706
:1008B000515009F0A5CFDF91CF911F910F91FF907B
:1008C000EF90DF90CF90BF9008950BE210E068307A
:1008D00030F005E210E0363010F008E210E0F801E8
:1008E00040814E210BE210E0683008F4BDCF05E2F4
:1008F00010E0363008F4B8CF08E210E0B5CF1F930F
:10090000CF93DF93C82FD62F142F0E947703412F48
:100910006D2F8C2F0E94BF036D2F8C2F0E94890298
:10092000182F6D2F8C2F0E940D03812FDF91CF91F7
:100930001F910895089590E080E00895FB010190D3
:100940000020E9F73197AF01461B570BDC01ED9111
:10095000FC910280F381E02D09948F929F92AF92D7
:10096000BF92EF92FF920F931F93CF93DF93CDB778
:10097000DEB7A1970FB6F894DEBF0FBECDBF7C01E6
:10098000FA01CB0119A2223008F42AE08E010F5D92
:100990001F4F822E912CB12CA12CBF01A5019401D7
:1009A0000E94C709F901CA016A300CF5605DD801DF
:1009B0006E938D01232B242B252B79F790E080E07B
:1009C000109721F0BD01C7010E949E04A1960FB6A9
:1009D000F894DEBF0FBECDBFDF91CF911F910F9175
:1009E000FF90EF90BF90AF909F908F900895695CBB
:1009F000DECF8F929F92AF92BF92DF92EF92FF92E3
:100A00000F931F93CF93DF9300D000D01F92CDB7E9
:100A1000DEB77C015B018A01D22EFC0186819A013E
:100A20002D0D311D8217130608F46BC0CE010196FF
:100A30004C0185E0F40111928A95E9F78D2D8770BC
:100A4000806C8983CE0102960E94BB0BF7018685DC
:100A500090E0F401E80FF91F2081F7013585332379
:100A600079F130E8880D991D232BFC012083F1E0FA
:100A7000FD1568F0F7019485D11026C002301105EC
:100A800018F18B819923F1F090E8892B8B830F5F0C
:100A9000F701D58014816D2D812F0E947703740199
:100AA0008E2D88198017C8F4F70141917F016D2DB3
:100AB000812F0E94BF036D2D812F0E948902F0CFEC
:100AC00030E0D0CF90E0E1CF8A81992321F090E807
:100AD000892B8A83DCCF90E0FBCF6D2D812F0F9087
:100AE0000F900F900F900F90DF91CF911F910F916A
:100AF000FF90EF90DF90BF90AF909F908F900C94FD
:100B00000D03182F1D19412F50E02D2DC7010E94F4
:100B1000F904F7016285738590E080E00E94550238
:100B20000D5F011B11E0F7014681041790F050E0C2
:100B3000B501610F711D20E0C7010E94F904F701A2
:100B40006285738590E080E00E94550201501F5F2E
:100B5000EACF0F900F900F900F900F90DF91CF91F1
:100B60001F910F91FF90EF90DF90BF90AF909F90FB
:100B70008F900895CF93DF9300D000D0CDB7DEB72C
:100B800019821A821B821C8220E044E050E0BE01E0
:100B90006F5F7F4F82EE91E00E94F9041092EB01AB
:100BA0000F900F900F900F90DF91CF9108951F93AA
:100BB000CF93DF93CDB7DEB7C058D1090FB6F89405
:100BC000DEBF0FBECDBF362F272F4138510510F0A5
:100BD00040E850E0BE016F5F7F4FA32FB22F9B0113
:100BE000F901E61BF70BE417F50770F4ED9110E03F
:100BF000E03234F00E2E000CFF0BE85BFF4F149137
:100C0000F90111939F01ECCFFC0121850E94F904A9
:100C1000C058DF4F0FB6F894DEBF0FBECDBFDF91D7
:100C2000CF911F9108951F93CF93DF93EC01162F5F
:100C300089859E81891323C0BE01615F7F4F262F66
:100C4000FB019E2F921B981718F491819193F9CF75
:100C5000898590E0E0E010323CF0E12F012E000C9D
:100C6000FF0BE85BFF4FE4918C0F9D1FDC011F968B
:100C7000EC934E8150E020E0CE010E94F9044985BA
:100C80008E814817F0F450E0E0E0103234F0E12FAC
:100C9000110FFF0BE85BFF4FE491DE01A40FB51FBE
:100CA0001F96EC934F5F5F4F20E0BE01615F7F4F67
:100CB000CE010E94F90489858F5F843008F083E0BB
:100CC0008987DF91CF911F9108951F920F920FB6E0
:100CD0000F9211242F933F934F935F936F937F93C2
:100CE0008F939F93AF93BF93EF93FF9385E491E02E
:100CF0000E944D01FF91EF91BF91AF919F918F9114
:100D00007F916F915F914F913F912F910F900FBE07
:100D10000F901F9018951F920F920FB60F921124EB
:100D20002F938F939F93EF93FF93E0915501F09151
:100D300056018081E0915B01F0915C0182FD1BC056
:100D4000908180915E018F5F8F7320915F01821788
:100D500041F0E0915E01F0E0EB5BFE4F958F8093F8
:100D60005E01FF91EF919F918F912F910F900FBE98
:100D70000F901F9018958081F4CF1F920F920FB69D
:100D80000F9211242F933F938F939F93AF93BF9311
:100D90008091370190913801A0913901B0913A01C9
:100DA0003091360123E0230F2D3758F50196A11D10
:100DB000B11D209336018093370190933801A093A1
:100DC0003901B0933A0180913B0190913C01A0918F
:100DD0003D01B0913E010196A11DB11D80933B01E3
:100DE00090933C01A0933D01B0933E01BF91AF9120
:100DF0009F918F913F912F910F900FBE0F901F9059
:100E0000189526E8230F0296A11DB11DD2CF1F927F
:100E10000F920FB60F9211242F933F934F935F932E
:100E20006F937F938F939F93AF93BF93EF93FF93B2
:100E3000E0910201F09103010995FF91EF91BF91BB
:100E4000AF919F918F917F916F915F914F913F9162
:100E50002F910F900FBE0F901F9018951F920F9219
:100E60000FB60F9211242F933F934F935F936F937D
:100E70007F938F939F93AF93BF93EF93FF93E091F3
:100E80000001F09101010995FF91EF91BF91AF91A0
:100E90009F918F917F916F915F914F913F912F9192
:100EA0000F900FBE0F901F9018951F920F920FB6C4
:100EB0000F9211248F9381E0809304018F910F9002
:100EC0000FBE0F901F901895109248011092470185
:100ED00088EE93E0A0E0B0E08093490190934A014E
:100EE000A0934B01B0934C0189E091E090934601AF
:100EF0008093450185EC90E09093520180935101DD
:100F000084EC90E0909354018093530180EC90E046
:100F1000909356018093550181EC90E09093580195
:100F20008093570182EC90E090935A01809359018D
:100F300086EC90E090935C0180935B0110925E01DF
:100F400010925F0110926001109261011092E50110
:100F50001092E4018BE191E09093E3018093E20130
:100F600083E08093E60184E08093E701539A549AEA
:100F70005B9AEBE2F0E0808190E1892B8083109214
:100F8000EB018CE291E09093ED018093EC011092E3
:100F9000EE011092EF0181E08093F00184E68093EE
:100FA000EA014FE86091E7018091E6010E947F0429
:100FB00040E46091E7018091E6010C947F0478940D
:100FC00084B5826084BD84B5816084BD85B582604E
:100FD00085BD85B5816085BD80916E0081608093FF
:100FE0006E00109281008091810082608093810068
:100FF0008091810081608093810080918000816078
:10100000809380008091B10084608093B1008091D2
:10101000B00081608093B00080917A0084608093FA
:101020007A0080917A00826080937A0080917A00C1
:10103000816080937A0080917A00806880937A0042
:101040001092C100E0915501F091560182E0808339
:10105000E0915101F09152011082E0915301F09121
:1010600054018FEC808310925D01E0915901F09161
:101070005A0186E08083E0915701F0915801808108
:1010800080618083E0915701F091580180818860F0
:101090008083E0915701F0915801808180688083BE
:1010A000E0915701F091580180818F7D80831092EB
:1010B0008000109281008091810084608093810083
:1010C00080916F00816080936F00ECEFF0E02491DD
:1010D000E8EEF0E084918823C1F090E0880F991F3A
:1010E000FC01E853FF4FC591D491FC01E452FF4F3E
:1010F000A591B4919FB7F8943881822F809583236E
:101100008883EC91E22BEC939FBFE0E0F1E0249127
:10111000ECEEF0E08491882399F090E0880F991F1D
:10112000FC01E853FF4FA591B491FC01E452FF4F3D
:10113000859194918FB7F894EC91E22BEC938FBF4B
:1011400080E00E9405028CEB90E090930101809377
:101150000001809169008C7F826080936900E89A29
:1011600084E08093E80181E08093E9010E94BA0560
:1011700084E68093EA014FE86091E7018091E601FF
:101180000E947F0403E111E09FEFE92E90E0F92E29
:101190002BEEC22E20E0D22EC0E0D0E032E0932E23
:1011A00043E0842E5FE0A52E57E2B52E8091040126
:1011B000882341F167E271E085E491E00E949E049A
:1011C00063E271E085E491E00E949E040E94BA050A
:1011D0001092EB0166E271E082EE91E00E949E04C3
:1011E00080E00E94050264EF71E080E090E00E94E0
:1011F00055022097D9F20E9439018823B9F20E9442
:101200000000D4CF6091410170914201809143016F
:10121000909144010E94FE0A9B01AC0160EC71EECA
:1012200084E699E40E94560A2B013C0120E030E05C
:10123000A9010E948C0B20E030E040E05FE387FDD5
:101240009CC0C301B2010E94EA090E94C80A6F3023
:1012500027E2720708F096C07093400160933F0147
:1012600081E00E94050240913F015091400170E0F1
:1012700060E02AE085E491E00E94AD0463E271E061
:1012800085E491E00E949E040E94BA0540913F01CE
:10129000509140014A30510548F48092EB0170E0D2
:1012A00060E02AE082EE91E00E94AD0440913F01AF
:1012B00050914001CA010B978935910548F49092ED
:1012C000EB0170E060E02AE082EE91E00E94AD0464
:1012D00040913F0150914001CA01855691098338E0
:1012E000934050F481E08093EB0170E060E02AE0ED
:1012F00082EE91E00E94AD0440913F015091400187
:10130000483EF3E05F0748F01092EB0170E060E0C8
:101310002AE082EE91E00E94AD0480913F0190911D
:1013200040018F30974240F01092EB016BE271E088
:1013300082EE91E00E949E04F8018491F70174907E
:10134000F6016490662009F44ECF81110E94DC0101
:10135000E62DF0E0EE0FFF1FEE52FF4FA591B49186
:101360008C91782209F43FCF1092EB0160E371E099
:1013700082EE91E00E949E0436CFC301B2010E942A
:10138000E90963CFB0924001A0923F0169CFA1E289
:101390001A2EAA1BBB1BFD010DC0AA1FBB1FEE1FEF
:1013A000FF1FA217B307E407F50720F0A21BB30B3A
:1013B000E40BF50B661F771F881F991F1A9469F7B6
:1013C00060957095809590959B01AC01BD01CF0112
:1013D00008955058BB27AA270E94010A0C94520B6B
:1013E0000E94440B38F00E944B0B20F039F49F3FD1
:1013F00019F426F40C94410B0EF4E095E7FB0C94E1
:101400003B0BE92F0E94630B58F3BA17620773076F
:101410008407950720F079F4A6F50C94850B0EF45B
:10142000E0950B2EBA2FA02D0B01B90190010C01F4
:10143000CA01A0011124FF27591B99F0593F50F40C
:10144000503E68F11A16F040A22F232F342F442764
:10145000585FF3CF469537952795A795F04053955C
:10146000C9F77EF41F16BA0B620B730B840BBAF02C
:101470009150A1F0FF0FBB1F661F771F881FC2F797
:101480000EC0BA0F621F731F841F48F487957795AB
:101490006795B795F7959E3F08F0B0CF9395880F65
:1014A00008F09927EE0F9795879508950E946A0A8C
:1014B0000C94520B0E944B0B58F00E94440B40F0CE
:1014C00029F45F3F29F00C943B0B51110C94860BCF
:1014D0000C94410B0E94630B68F39923B1F35523DD
:1014E00091F3951B550BBB27AA2762177307840737
:1014F00038F09F5F5F4F220F331F441FAA1FA9F3CD
:1015000035D00E2E3AF0E0E832D091505040E695BA
:10151000001CCAF72BD0FE2F29D0660F771F881F1B
:10152000BB1F261737074807AB07B0E809F0BB0B0E
:10153000802DBF01FF2793585F4F3AF09E3F510522
:1015400078F00C943B0B0C94860B5F3FE4F3983ED1
:10155000D4F3869577956795B795F7959F5FC9F70B
:10156000880F911D9695879597F90895E1E0660F8C
:10157000771F881FBB1F621773078407BA0720F005
:10158000621B730B840BBA0BEE1F88F7E09508956E
:101590000E94CF0A6894B1110C94860B08950E94A2
:1015A0006B0B88F09F5798F0B92F9927B751B0F07F
:1015B000E1F0660F771F881F991F1AF0BA95C9F7D7
:1015C00014C0B13091F00E94850BB1E008950C94E5
:1015D000850B672F782F8827B85F39F0B93FCCF398
:1015E000869577956795B395D9F73EF49095809554
:1015F000709561957F4F8F4F9F4F0895E89409C074
:1016000097FB3EF490958095709561957F4F8F4F35
:101610009F4F9923A9F0F92F96E9BB279395F6954B
:10162000879577956795B795F111F8CFFAF4BB0FC9
:1016300011F460FF1BC06F5F7F4F8F4F9F4F16C02D
:10164000882311F096E911C0772321F09EE8872FB7
:10165000762F05C0662371F096E8862F70E060E073
:101660002AF09A95660F771F881FDAF7880F9695EC
:10167000879597F9089597F99F6780E870E060E093
:1016800008959FEF80EC089500240A94161617061B
:1016900018060906089500240A9412161306140663
:1016A00005060895092E0394000C11F4882352F0C6
:1016B000BB0F40F4BF2B11F460FF04C06F5F7F4F7E
:1016C0008F4F9F4F089557FD9058440F551F59F065
:1016D0005F3F71F04795880F97FB991F61F09F3F1F
:1016E00079F087950895121613061406551FF2CF48
:1016F0004695F1DF08C0161617061806991FF1CF98
:1017000086957105610508940895E894BB276627BE
:101710007727CB0197F908950E94910B08F48FEF7A
:101720000895990F0008550FAA0BE0E8FEEF161672
:101730001706E807F907C0F012161306E407F507C5
:1017400098F0621B730B840B950B39F40A2661F039
:10175000232B242B252B21F408950A2609F4A140DC
:10176000A6958FEF811D811D0895EE0FFF1F059037
:10177000F491E02D0994FB01DC0102C001900D926F
:0C17800041505040D8F70895F894FFCF76
:10178C008802880201000000006F01CF00FC00BC41
:10179C00012D010B011F01000000001306D7059B52
:1017AC00049A040D0A002D2D2D2D004848484800A0
:0617BC00457272430000BB
:00000001FF
