:100000000C9461000C947E000C947E000C947E0095
:100010000C947E000C947E000C947E000C947E0068
:100020000C947E000C947E000C947E000C947E0058
:100030000C947E000C947E000C947E000C947E0048
:100040000C942D010C947E000C947E000C947E0088
:100050000C947E000C947E000C947E000C947E0028
:100060000C947E000C947E0000000000230026000B
:10007000290000000008000201000003040700003E
:1000800000000000000000000000250028002B00F8
:1000900000000000240027002A00040404040404D3
:1000A0000404020202020202030303030303010227
:1000B00004081020408001020408102001020408F6
:1000C000102011241FBECFEFD8E0DEBFCDBF11E05E
:1000D000A0E0B1E0EEE9F9E002C005900D92A03099
:1000E000B107D9F721E0A0E0B1E001C01D92A53130
:1000F000B207E1F70E9477010C94CD040C94000044
:1001000090E0FC01E255FF4F249186569F4FFC0181
:100110008491882399F090E0880F991FFC01E057A3
:10012000FF4FA591B491FC01EA57FF4F859194913F
:100130008FB7F894EC91E22BEC938FBF0895833046
:1001400081F028F4813099F08230A9F00895873049
:10015000A9F08830C9F08430B1F4809180008F7D9F
:1001600003C0809180008F7780938000089584B5CC
:100170008F7784BD089584B58F7DFBCF8091B000CB
:100180008F778093B00008958091B0008F7DF9CF74
:100190001F93CF93DF93282F30E0F901EE58FF4FE4
:1001A0008491F901E255FF4FD491F901E656FF4FD2
:1001B000C491CC23A9F0162F81110E949F00EC2F2F
:1001C000F0E0EE0FFF1FEA57FF4FA591B4918FB7F4
:1001D000F894EC91111108C0D095DE23DC938FBF09
:1001E000DF91CF911F910895DE2BF8CF8E50806460
:1001F00080937C0080917A00806480937A00809163
:100200007A0086FDFCCF8091780090917900089566
:100210003FB7F8948091010190910201A0910301F0
:10022000B091040126B5A89B05C02F3F19F0019697
:10023000A11DB11D3FBFBA2FA92F982F8827BC0140
:10024000CD01620F711D811D911D42E0660F771F68
:10025000881F991F4A95D1F708951F920F920FB6E4
:100260000F9211242F933F938F939F93AF93BF933C
:100270008091050190910601A0910701B0910801BC
:100280003091000123E0230F2D3758F50196A11D71
:10029000B11D209300018093050190930601A09366
:1002A0000701B09308018091010190910201A09192
:1002B0000301B09104010196A11DB11D80930101BC
:1002C00090930201A0930301B0930401BF91AF91F9
:1002D0009F918F913F912F910F900FBE0F901F9084
:1002E000189526E8230F0296A11DB11DD2CF789450
:1002F00084B5826084BD84B5816084BD85B582602B
:1003000085BD85B5816085BD80916E0081608093DB
:100310006E00109281008091810082608093810044
:100320008091810081608093810080918000816054
:10033000809380008091B10084608093B1008091AF
:10034000B00081608093B00080917A0084608093D7
:100350007A0080917A00826080937A0080917A009E
:10036000816080937A0080917A00806880937A001F
:100370001092C1008CE00E94800060E08CE00E943E
:10038000C8008FE00E94800060E08FE00E94C800FB
:1003900081E10E94800061E081E10E94C8008DE05F
:1003A0000E94800060E08DE00E94C80082E00E9410
:1003B000800060E082E00E94C800CC24CA9493E0F0
:1003C000D92EE12CF12C25E7222E20E0322E31EB24
:1003D000832E30E0932ECDE9D0E000E010E040E441
:1003E000A42E4FE1B42E8EE00E94F60020EE3FE1F5
:1003F000DC010E94C604A70196010E94E502203696
:1004000031050CF4D1C03093140120931301809175
:1004100013019091140181349F4124F0B092140192
:10042000A092130180911201811150C00E94080115
:1004300040900E0150900F016090100170901101DA
:1004400064197509860997090E94A2032B013C01D2
:100450006091130170911401072E000C880B990B09
:100460000E94A40323E333E343E35FE30E943504E4
:100470009B01AC0160E070E081E096E40E943503EE
:100480009B01AC01C301B2010E94300487FF2D9A89
:100490000E94080140900E0150900F0160901001E1
:1004A000709011016419750986099709603E7F41B2
:1004B0008105910558F02D980E94080160930E0166
:1004C00070930F018093100190931101F1018491B9
:1004D000F4017490FE016490662079F081110E940D
:1004E0009F00E62DF0E0EE0FFF1FE859FF4FA591AA
:1004F000B4918C91782261E009F460E08FE00E9471
:10050000C80080E10E94F6008F3D92400CF454C078
:1005100081E08093120180911201882309F44EC07A
:1005200060E08DE00E94C80061E082E00E94C800A7
:100530002FB7F8948091050190910601A0910701D1
:10054000B09108012FBF40910A0150910B016091B9
:100550000C0170910D01841B950BA60BB70B803914
:100560009140A105B105B8F22FB7F894809105012B
:1005700090910601A0910701B09108012FBF8093CF
:100580000A0190930B01A0930C01B0930D0180918F
:10059000090181110EC081E0809309016091090178
:1005A00081E10E94C800B7CF10921401109213018C
:1005B0002ECF10920901F2CF1092120101151105F0
:1005C00009F411CF0E9400000ECF052E97FB1EF4F8
:1005D00000940E94FC0257FD07D00E94040307FC10
:1005E00003D04EF40C94FC02509540953095219523
:1005F0003F4F4F4F5F4F089590958095709561954F
:100600007F4F8F4F9F4F0895A1E21A2EAA1BBB1B4D
:10061000FD010DC0AA1FBB1FEE1FFF1FA217B307CE
:10062000E407F50720F0A21BB30BE40BF50B661FE4
:10063000771F881F991F1A9469F7609570958095A8
:1006400090959B01AC01BD01CF010895A29FB0011F
:10065000B39FC001A39F700D811D1124911DB29FF6
:10066000700D811D1124911D08955058BB27AA2794
:100670000E944D030C94F6030E94E80338F00E9498
:10068000EF0320F039F49F3F19F426F40C94E503AE
:100690000EF4E095E7FB0C94DF03E92F0E940704BA
:1006A00058F3BA17620773078407950720F079F4A7
:1006B000A6F50C9429040EF4E0950B2EBA2FA02D6C
:1006C0000B01B90190010C01CA01A0011124FF27FF
:1006D000591B99F0593F50F4503E68F11A16F040FA
:1006E000A22F232F342F4427585FF3CF46953795F9
:1006F0002795A795F0405395C9F77EF41F16BA0BBE
:10070000620B730B840BBAF09150A1F0FF0FBB1F6B
:10071000661F771F881FC2F70EC0BA0F621F731FB4
:10072000841F48F4879577956795B795F7959E3F11
:1007300008F0B0CF9395880F08F09927EE0F9795A2
:1007400087950895E89409C097FB3EF490958095AD
:10075000709561957F4F8F4F9F4F9923A9F0F92F87
:1007600096E9BB279395F695879577956795B79505
:10077000F111F8CFFAF4BB0F11F460FF1BC06F5FEB
:100780007F4F8F4F9F4F16C0882311F096E911C0FD
:10079000772321F09EE8872F762F05C0662371F01E
:1007A00096E8862F70E060E02AF09A95660F771F32
:1007B000881FDAF7880F9695879597F9089597F926
:1007C0009F6780E870E060E008959FEF80EC0895F7
:1007D00000240A9416161706180609060895002420
:1007E0000A9412161306140605060895092E03949A
:1007F000000C11F4882352F0BB0F40F4BF2B11F40E
:1008000060FF04C06F5F7F4F8F4F9F4F089557FD6C
:100810009058440F551F59F05F3F71F04795880F6E
:1008200097FB991F61F09F3F79F087950895121605
:1008300013061406551FF2CF4695F1DF08C01616B1
:1008400017061806991FF1CF869571056105089462
:100850000895E894BB2766277727CB0197F9089579
:100860000E94A20408F48FEF08950E9448040C949B
:10087000F6030E94E80338F00E94EF0320F095236E
:1008800011F00C94DF030C94E50311240C942A045A
:100890000E94070470F3959FC1F3950F50E0551F18
:1008A000629FF001729FBB27F00DB11D639FAA27C5
:1008B000F00DB11DAA1F649F6627B00DA11D661F14
:1008C000829F2227B00DA11D621F739FB00DA11D35
:1008D000621F839FA00D611D221F749F3327A00DEF
:1008E000611D231F849F600D211D822F762F6A2F8B
:1008F00011249F5750409AF0F1F088234AF0EE0FF0
:10090000FF1FBB1F661F771F881F91505040A9F71C
:100910009E3F510580F00C94DF030C942A045F3F46
:10092000E4F3983ED4F3869577956795B795F79558
:10093000E7959F5FC1F7FE2B880F911D96958795D0
:1009400097F90895990F0008550FAA0BE0E8FEEFFC
:1009500016161706E807F907C0F012161306E40783
:10096000F50798F0621B730B840B950B39F40A267C
:1009700061F0232B242B252B21F408950A2609F45A
:10098000A140A6958FEF811D811D08950E94260329
:0E099000B7FF0895821B930B0895F894FFCFD4
:00000001FF
